:020000040800F2
:10000000600600200D0200083503000831030008D7
:1000100033030008C7020008510400080000000074
:10002000000000000000000000000000390300088C
:10003000C90200080000000037030008F1030008AF
:1000400027020008270200082702000827020008EC
:100050002702000827020008CB0200082702000838
:1000600027020008E1020008F90200082702000840
:1000700027020008270200082702000827020008BC
:1000800027020008270200082702000827020008AC
:10009000270200082702000827020008270200089C
:1000A000270200082702000827020008270200088C
:1000B000270200082702000827020008270200087C
:1000C000270200082702000827020008270200086C
:1000D000270200082702000827020008270200085C
:1000E000270200082702000827020008270200084C
:1000F000270200082702000827020008270200083C
:10010000270200082702000827020008270200082B
:10011000270200082702000827020008270200081B
:10012000270200082702000827020008270200080B
:1001300027020008270200082702000827020008FB
:1001400027020008270200082702000827020008EB
:1001500027020008270200082702000827020008DB
:1001600027020008270200082702000827020008CB
:1001700027020008270200082702000827020008BB
:10018000270200082702000800F002F800F02EF80D
:100190000AA090E8000C82448344AAF10107DA45E2
:1001A00001D100F023F8AFF2090EBAE80F0013F006
:1001B000010F18BFFB1A43F001031847A402000007
:1001C000B40200000023002400250026103A28BFB6
:1001D00078C1FBD8520728BF30C148BF0B607047B9
:1001E0001FB500F037F91FBD10B510BD00F031F894
:1001F0001146FFF7F5FF00F02CF900F04FF803B4BB
:10020000FFF7F2FF03BC00F057F8000009488047F1
:1002100009480047FEE7FEE7FEE7FEE7FEE7FEE7E8
:10022000FEE7FEE7FEE7FEE704480549054A064B00
:1002300070470000F50300088901000860000020F5
:1002400060060020600200206002002070477047B6
:100250007047754600F02CF8AE46050069465346D7
:1002600020F00700854618B020B5FFF7DDFFBDE898
:1002700020404FF000064FF000074FF000084FF00D
:10028000000B21F00701AC46ACE8C009ACE8C0099E
:10029000ACE8C009ACE8C0098D46704710B504460B
:1002A000AFF300802046BDE81040FFF7A8BF000074
:1002B000004870470000002001491820ABBEFEE74F
:1002C000260002007047FEE7704710B5012000F0DD
:1002D00025F8012803D1BDE8104000F019B810BD81
:1002E00010B5082000F01AF8012804D1BDE810402C
:1002F000082000F00DB810BD10B5102000F00EF869
:10030000012804D1BDE81040102000F001B810BD54
:100310000149086070470000143C0140034A01464F
:10032000002012680A4200D001207047143C0140AE
:10033000FEE7FEE770477047704700000CB50022EB
:10034000274900920192086840F4803008604FF419
:10035000A043086800F4003001900098401C009011
:10036000019810B900989842F3D10868800334D5F9
:10037000012001901A484030026842F08052026029
:100380001848026842F4404202601548083002688A
:100390000260026842F400420260026842F4A05225
:1003A0000260031F104A1A600A6842F080720A60F5
:1003B0000A689201FCD50D4940F205720A60016895
:1003C00021F003010160016841F002010160016850
:1003D000C1F381010229FAD10CBD01920CBD0000CC
:1003E000003802400070004008544007003C0240C2
:1003F00070470000124810B5016841F470010160B7
:100400001048016841F0010101600E4A00210832E4
:10041000116002680C4B1A400260031D0B4A1A60FF
:10042000026822F48022026006480C300160FFF767
:1004300085FF03494FF000608039086010BD00005F
:1004400088ED00E000380240FFFFF6FE1030002487
:10045000FEE7FEE74FF04070E1EE100A7047000043
:10046000700400080000002060060000C4010008BD
:040000050800018965
:00000001FF
